Archive member included to satisfy reference by file (symbol)

/opt/setup/gcc-arm-none-eabi-5_4-2016q2/arm-none-eabi/lib/armv7-m/libc.a(lib_a-exit.o)
                              /opt/setup/gcc-arm-none-eabi-5_4-2016q2/bin/../lib/gcc/arm-none-eabi/5.4.1/../../../../arm-none-eabi/lib/armv7-m/crt0.o (exit)
/opt/setup/gcc-arm-none-eabi-5_4-2016q2/arm-none-eabi/lib/armv7-m/libc.a(lib_a-impure.o)
                              /opt/setup/gcc-arm-none-eabi-5_4-2016q2/arm-none-eabi/lib/armv7-m/libc.a(lib_a-exit.o) (_global_impure_ptr)
/opt/setup/gcc-arm-none-eabi-5_4-2016q2/arm-none-eabi/lib/armv7-m/libc.a(lib_a-init.o)
                              /opt/setup/gcc-arm-none-eabi-5_4-2016q2/bin/../lib/gcc/arm-none-eabi/5.4.1/../../../../arm-none-eabi/lib/armv7-m/crt0.o (__libc_init_array)
/opt/setup/gcc-arm-none-eabi-5_4-2016q2/arm-none-eabi/lib/armv7-m/libc.a(lib_a-memset.o)
                              /opt/setup/gcc-arm-none-eabi-5_4-2016q2/bin/../lib/gcc/arm-none-eabi/5.4.1/../../../../arm-none-eabi/lib/armv7-m/crt0.o (memset)
/opt/setup/gcc-arm-none-eabi-5_4-2016q2/arm-none-eabi/lib/armv7-m/libc.a(lib_a-strcpy.o)
                              USB_device.o (strcpy)
/opt/setup/gcc-arm-none-eabi-5_4-2016q2/arm-none-eabi/lib/armv7-m/libc.a(lib_a-__call_atexit.o)
                              /opt/setup/gcc-arm-none-eabi-5_4-2016q2/arm-none-eabi/lib/armv7-m/libc.a(lib_a-exit.o) (__call_exitprocs)
/opt/setup/gcc-arm-none-eabi-5_4-2016q2/arm-none-eabi/lib/armv7-m/libc.a(lib_a-atexit.o)
                              /opt/setup/gcc-arm-none-eabi-5_4-2016q2/arm-none-eabi/lib/armv7-m/libc.a(lib_a-__call_atexit.o) (atexit)
/opt/setup/gcc-arm-none-eabi-5_4-2016q2/arm-none-eabi/lib/armv7-m/libc.a(lib_a-fini.o)
                              /opt/setup/gcc-arm-none-eabi-5_4-2016q2/arm-none-eabi/lib/armv7-m/libc.a(lib_a-__call_atexit.o) (__libc_fini_array)
/opt/setup/gcc-arm-none-eabi-5_4-2016q2/arm-none-eabi/lib/armv7-m/libc.a(lib_a-__atexit.o)
                              /opt/setup/gcc-arm-none-eabi-5_4-2016q2/arm-none-eabi/lib/armv7-m/libc.a(lib_a-atexit.o) (__register_exitproc)
/opt/setup/gcc-arm-none-eabi-5_4-2016q2/bin/../lib/gcc/arm-none-eabi/5.4.1/armv7-m/libgcc.a(_aeabi_uldivmod.o)
                              system_LPC17xx.o (__aeabi_uldivmod)
/opt/setup/gcc-arm-none-eabi-5_4-2016q2/bin/../lib/gcc/arm-none-eabi/5.4.1/armv7-m/libgcc.a(_udivmoddi4.o)
                              /opt/setup/gcc-arm-none-eabi-5_4-2016q2/bin/../lib/gcc/arm-none-eabi/5.4.1/armv7-m/libgcc.a(_aeabi_uldivmod.o) (__udivmoddi4)
/opt/setup/gcc-arm-none-eabi-5_4-2016q2/bin/../lib/gcc/arm-none-eabi/5.4.1/armv7-m/libgcc.a(_dvmd_tls.o)
                              /opt/setup/gcc-arm-none-eabi-5_4-2016q2/bin/../lib/gcc/arm-none-eabi/5.4.1/armv7-m/libgcc.a(_aeabi_uldivmod.o) (__aeabi_ldiv0)

Discarded input sections

 .text          0x00000000        0x0 /opt/setup/gcc-arm-none-eabi-5_4-2016q2/bin/../lib/gcc/arm-none-eabi/5.4.1/armv7-m/crti.o
 .data          0x00000000        0x0 /opt/setup/gcc-arm-none-eabi-5_4-2016q2/bin/../lib/gcc/arm-none-eabi/5.4.1/armv7-m/crti.o
 .bss           0x00000000        0x0 /opt/setup/gcc-arm-none-eabi-5_4-2016q2/bin/../lib/gcc/arm-none-eabi/5.4.1/armv7-m/crti.o
 .data          0x00000000        0x4 /opt/setup/gcc-arm-none-eabi-5_4-2016q2/bin/../lib/gcc/arm-none-eabi/5.4.1/armv7-m/crtbegin.o
 .text          0x00000000       0x74 /opt/setup/gcc-arm-none-eabi-5_4-2016q2/bin/../lib/gcc/arm-none-eabi/5.4.1/../../../../arm-none-eabi/lib/armv7-m/crt0.o
 .data          0x00000000        0x0 /opt/setup/gcc-arm-none-eabi-5_4-2016q2/bin/../lib/gcc/arm-none-eabi/5.4.1/../../../../arm-none-eabi/lib/armv7-m/crt0.o
 .bss           0x00000000        0x0 /opt/setup/gcc-arm-none-eabi-5_4-2016q2/bin/../lib/gcc/arm-none-eabi/5.4.1/../../../../arm-none-eabi/lib/armv7-m/crt0.o
 .ARM.extab     0x00000000        0x0 /opt/setup/gcc-arm-none-eabi-5_4-2016q2/bin/../lib/gcc/arm-none-eabi/5.4.1/../../../../arm-none-eabi/lib/armv7-m/crt0.o
 .ARM.exidx     0x00000000        0x8 /opt/setup/gcc-arm-none-eabi-5_4-2016q2/bin/../lib/gcc/arm-none-eabi/5.4.1/../../../../arm-none-eabi/lib/armv7-m/crt0.o
 .ARM.attributes
                0x00000000       0x1b /opt/setup/gcc-arm-none-eabi-5_4-2016q2/bin/../lib/gcc/arm-none-eabi/5.4.1/../../../../arm-none-eabi/lib/armv7-m/crt0.o
 .text          0x00000000        0x0 startup_LPC17xx.o
 .data          0x00000000        0x0 startup_LPC17xx.o
 .bss           0x00000000        0x0 startup_LPC17xx.o
 .text          0x00000000        0x0 system_LPC17xx.o
 .data          0x00000000        0x0 system_LPC17xx.o
 .bss           0x00000000        0x0 system_LPC17xx.o
 .data.SystemCoreClock
Memory Configuration

Name             Origin             Length             Attributes
FLASH            0x00002000         0x0007e000         xr
RAM              0x100000c8         0x00007f38         xrw
USB_RAM          0x2007c000         0x00004000         xrw
ETH_RAM          0x20080000         0x00004000         xrw
*default*        0x00000000         0xffffffff

Linker script and memory map

LOAD /opt/setup/gcc-arm-none-eabi-5_4-2016q2/bin/../lib/gcc/arm-none-eabi/5.4.1/armv7-m/crti.o
LOAD /opt/setup/gcc-arm-none-eabi-5_4-2016q2/bin/../lib/gcc/arm-none-eabi/5.4.1/armv7-m/crtbegin.o
LOAD /opt/setup/gcc-arm-none-eabi-5_4-2016q2/bin/../lib/gcc/arm-none-eabi/5.4.1/../../../../arm-none-eabi/lib/armv7-m/crt0.o
LOAD startup_LPC17xx.o
LOAD system_LPC17xx.o
LOAD rtc.o
LOAD lcd.o
LOAD usbcontrol.o
LOAD USB_device.o
LOAD usbhw_lpc.o
LOAD usbinit.o
LOAD usbstdreq.o
LOAD /opt/setup/gcc-arm-none-eabi-5_4-2016q2/arm-none-eabi/lib/armv7-m/libstdc++.a
LOAD /opt/setup/gcc-arm-none-eabi-5_4-2016q2/arm-none-eabi/lib/armv7-m/libsupc++.a
LOAD /opt/setup/gcc-arm-none-eabi-5_4-2016q2/arm-none-eabi/lib/armv7-m/libm.a
LOAD /opt/setup/gcc-arm-none-eabi-5_4-2016q2/arm-none-eabi/lib/armv7-m/libc.a
LOAD /opt/setup/gcc-arm-none-eabi-5_4-2016q2/arm-none-eabi/lib/armv7-m/libg.a
LOAD /opt/setup/gcc-arm-none-eabi-5_4-2016q2/arm-none-eabi/lib/armv7-m/libnosys.a
LOAD /opt/setup/gcc-arm-none-eabi-5_4-2016q2/arm-none-eabi/lib/armv7-m/libstdc++.a
LOAD /opt/setup/gcc-arm-none-eabi-5_4-2016q2/arm-none-eabi/lib/armv7-m/libsupc++.a
LOAD /opt/setup/gcc-arm-none-eabi-5_4-2016q2/arm-none-eabi/lib/armv7-m/libm.a
LOAD /opt/setup/gcc-arm-none-eabi-5_4-2016q2/arm-none-eabi/lib/armv7-m/libc.a
LOAD /opt/setup/gcc-arm-none-eabi-5_4-2016q2/arm-none-eabi/lib/armv7-m/libg.a
LOAD /opt/setup/gcc-arm-none-eabi-5_4-2016q2/arm-none-eabi/lib/armv7-m/libnosys.a
START GROUP
LOAD /opt/setup/gcc-arm-none-eabi-5_4-2016q2/bin/../lib/gcc/arm-none-eabi/5.4.1/armv7-m/libgcc.a
LOAD /opt/setup/gcc-arm-none-eabi-5_4-2016q2/arm-none-eabi/lib/armv7-m/libc.a
END GROUP
LOAD /opt/setup/gcc-arm-none-eabi-5_4-2016q2/bin/../lib/gcc/arm-none-eabi/5.4.1/armv7-m/crtend.o
LOAD /opt/setup/gcc-arm-none-eabi-5_4-2016q2/bin/../lib/gcc/arm-none-eabi/5.4.1/armv7-m/crtn.o

.text           0x00002000     0x1778
 *(.isr_vector)
 .isr_vector    0x00002000       0xc4 startup_LPC17xx.o
                0x00002000                g_pfnVectors
 *(.text*)
 .text          0x000020c4       0x5c /opt/setup/gcc-arm-none-eabi-5_4-2016q2/bin/../lib/gcc/arm-none-eabi/5.4.1/armv7-m/crtbegin.o
 .text.Reset_Handler
                0x00002120       0x6c startup_LPC17xx.o
                0x00002120                Reset_Handler
 .text.Default_Handler
                0x0000218c        0x8 startup_LPC17xx.o
                0x0000218c                TIMER2_IRQHandler
                0x0000218c                DebugMon_Handler
                0x0000218c                RIT_IRQHandler
                0x0000218c                I2C0_IRQHandler
                0x0000218c                SysTick_Handler
                0x0000218c                PWM1_IRQHandler
                0x0000218c                PendSV_Handler
                0x0000218c                I2C1_IRQHandler
                0x0000218c                EINT2_IRQHandler
                0x0000218c                UART1_IRQHandler
                0x0000218c                EINT3_IRQHandler
                0x0000218c                TIMER3_IRQHandler
                0x0000218c                UART0_IRQHandler
                0x0000218c                UsageFault_Handler
                0x0000218c                PLL0_IRQHandler
                0x0000218c                CAN_IRQHandler
                0x0000218c                PLL1_IRQHandler
                0x0000218c                SSP0_IRQHandler
                0x0000218c                I2S_IRQHandler
                0x0000218c                I2C2_IRQHandler
                0x0000218c                RTC_IRQHandler
                0x0000218c                TIMER0_IRQHandler
                0x0000218c                SPI_IRQHandler
                0x0000218c                EINT1_IRQHandler
                0x0000218c                TIMER1_IRQHandler
                0x0000218c                UART2_IRQHandler
                0x0000218c                Default_Handler
                0x0000218c                ADC_IRQHandler
                0x0000218c                SSP1_IRQHandler
                0x0000218c                BOD_IRQHandler
                0x0000218c                MemManage_Handler
                0x0000218c                WDT_IRQHandler
                0x0000218c                SVC_Handler
                0x0000218c                QEI_IRQHandler
                0x0000218c                EINT0_IRQHandler
                0x0000218c                DMA_IRQHandler
                0x0000218c                BusFault_Handler
                0x0000218c                UART3_IRQHandler
                0x0000218c                MCPWM_IRQHandler
                0x0000218c                ENET_IRQHandler
 .text.SystemInit
                0x00002194      0x13c system_LPC17xx.o
                0x00002194                SystemInit
 .text.rit_init
                0x000022d0       0x4c system_LPC17xx.o
                0x000022d0                rit_init
 .text.delay_ms
                0x0000231c       0x6c system_LPC17xx.o
                0x0000231c                delay_ms
 .text.rtc_init
                0x00002388       0x80 rtc.o
                0x00002388                rtc_init
 .text.lcd_init
                0x00002408       0x50 lcd.o
                0x00002408                lcd_init
 .text.lcd_write_nibble
                0x00002458       0x74 lcd.o
                0x00002458                lcd_write_nibble
 .text.lcd_write_byte
                0x000024cc       0x48 lcd.o
                0x000024cc                lcd_write_byte
 .text.lcd_busy_wait
                0x00002514       0x58 lcd.o
                0x00002514                lcd_busy_wait
 .text.lcd_puts
                0x0000256c       0x48 lcd.o
                0x0000256c                lcd_puts
 .text._HandleRequest
                0x000025b4       0x48 usbcontrol.o
 .text.StallControlPipe
                0x000025fc       0x34 usbcontrol.o
 .text.DataIn   0x00002630       0x50 usbcontrol.o
 .text.USBHandleControlTransfer
                0x00002680      0x16c usbcontrol.o
                0x00002680                USBHandleControlTransfer
 .text.USBRegisterRequestHandler
                0x000027ec       0x34 usbcontrol.o
                0x000027ec                USBRegisterRequestHandler
 .text.NVIC_EnableIRQ
                0x00002820       0x30 USB_device.o
 .text.BulkOut  0x00002850       0x38 USB_device.o
 .text.BulkIn   0x00002888       0x50 USB_device.o
 .text.USB_IRQHandler
                0x000028d8        0xc USB_device.o
                0x000028d8                USB_IRQHandler
 .text.main     0x000028e4       0x7c USB_device.o
                0x000028e4                main
 .text.Wait4DevInt
                0x00002960       0x30 usbhw_lpc.o
 .text.USBHwCmd
                0x00002990       0x34 usbhw_lpc.o
 .text.USBHwCmdWrite
                0x000029c4       0x38 usbhw_lpc.o
 .text.USBHwCmdRead
                0x000029fc       0x3c usbhw_lpc.o
 .text.USBHwEPRealize
                0x00002a38       0x48 usbhw_lpc.o
 .text.USBHwEPEnable
                0x00002a80       0x34 usbhw_lpc.o
 .text.USBHwEPConfig
                0x00002ab4       0x3c usbhw_lpc.o
                0x00002ab4                USBHwEPConfig
 .text.USBHwRegisterEPIntHandler
                0x00002af0       0x68 usbhw_lpc.o
                0x00002af0                USBHwRegisterEPIntHandler
 .text.USBHwRegisterDevIntHandler
                0x00002b58       0x30 usbhw_lpc.o
                0x00002b58                USBHwRegisterDevIntHandler
 .text.USBHwSetAddress
                0x00002b88       0x24 usbhw_lpc.o
                0x00002b88                USBHwSetAddress
 .text.USBHwConnect
                0x00002bac       0x28 usbhw_lpc.o
                0x00002bac                USBHwConnect
 .text.USBHwNakIntEnable
                0x00002bd4       0x20 usbhw_lpc.o
                0x00002bd4                USBHwNakIntEnable
 .text.USBHwEPGetStatus
                0x00002bf4       0x30 usbhw_lpc.o
                0x00002bf4                USBHwEPGetStatus
 .text.USBHwEPStall
                0x00002c24       0x48 usbhw_lpc.o
                0x00002c24                USBHwEPStall
 .text.USBHwEPWrite
                0x00002c6c       0x98 usbhw_lpc.o
                0x00002c6c                USBHwEPWrite
 .text.USBHwEPRead
                0x00002d04       0xcc usbhw_lpc.o
                0x00002d04                USBHwEPRead
 .text.USBHwConfigDevice
                0x00002dd0       0x28 usbhw_lpc.o
                0x00002dd0                USBHwConfigDevice
 .text.USBHwISR
                0x00002df8      0x19c usbhw_lpc.o
                0x00002df8                USBHwISR
 .text.USBHwInit
                0x00002f94       0xc8 usbhw_lpc.o
                0x00002f94                USBHwInit
 .text.HandleUsbReset
                0x0000305c       0x14 usbinit.o
 .text.USBInit  0x00003070       0x50 usbinit.o
                0x00003070                USBInit
 .text.USBRegisterDescriptors
                0x000030c0       0x1c usbstdreq.o
                0x000030c0                USBRegisterDescriptors
 .text.USBGetDescriptor
                0x000030dc       0x9c usbstdreq.o
                0x000030dc                USBGetDescriptor
 .text.USBSetConfiguration
                0x00003178       0xb8 usbstdreq.o
 .text.HandleStdDeviceReq
                0x00003230       0xd0 usbstdreq.o
 .text.HandleStdInterfaceReq
                0x00003300       0x9c usbstdreq.o
 .text.HandleStdEndPointReq
                0x0000339c       0xd0 usbstdreq.o
 .text.USBHandleStandardRequest
                0x0000346c       0x78 usbstdreq.o
                0x0000346c                USBHandleStandardRequest
 .text.strcpy   0x000034e4       0xbc /opt/setup/gcc-arm-none-eabi-5_4-2016q2/arm-none-eabi/lib/armv7-m/libc.a(lib_a-strcpy.o)
                0x000034e4                strcpy
 .text.startup.register_fini
                0x000035a0       0x14 /opt/setup/gcc-arm-none-eabi-5_4-2016q2/arm-none-eabi/lib/armv7-m/libc.a(lib_a-__call_atexit.o)
 .text.atexit   0x000035b4        0xc /opt/setup/gcc-arm-none-eabi-5_4-2016q2/arm-none-eabi/lib/armv7-m/libc.a(lib_a-atexit.o)
                0x000035b4                atexit
 .text.__libc_fini_array
                0x000035c0       0x28 /opt/setup/gcc-arm-none-eabi-5_4-2016q2/arm-none-eabi/lib/armv7-m/libc.a(lib_a-fini.o)
                0x000035c0                __libc_fini_array
 .text.__register_exitproc
                0x000035e8       0xa4 /opt/setup/gcc-arm-none-eabi-5_4-2016q2/arm-none-eabi/lib/armv7-m/libc.a(lib_a-__atexit.o)
                0x000035e8                __register_exitproc
 *(.init)
 .init          0x0000368c        0x4 /opt/setup/gcc-arm-none-eabi-5_4-2016q2/bin/../lib/gcc/arm-none-eabi/5.4.1/armv7-m/crti.o
                0x0000368c                _init
 .init          0x00003690        0x8 /opt/setup/gcc-arm-none-eabi-5_4-2016q2/bin/../lib/gcc/arm-none-eabi/5.4.1/armv7-m/crtn.o
 *(.fini)
 .fini          0x00003698        0x4 /opt/setup/gcc-arm-none-eabi-5_4-2016q2/bin/../lib/gcc/arm-none-eabi/5.4.1/armv7-m/crti.o
                0x00003698                _fini
 .fini          0x0000369c        0x8 /opt/setup/gcc-arm-none-eabi-5_4-2016q2/bin/../lib/gcc/arm-none-eabi/5.4.1/armv7-m/crtn.o
 *crtbegin.o(.ctors)
 *crtbegin?.o(.ctors)
 *(EXCLUDE_FILE(*crtend.o *crtend?.o) .ctors)
 *(SORT(.ctors.*))
 *(.ctors)
 *crtbegin.o(.dtors)
 *crtbegin?.o(.dtors)
 *(EXCLUDE_FILE(*crtend.o *crtend?.o) .dtors)
 *(SORT(.dtors.*))
 *(.dtors)
 *(.rodata*)
 .rodata.abDescriptors
                0x000036a4       0x74 USB_device.o
 .rodata        0x00003718       0x54 USB_device.o
 .rodata.str1.4
                0x0000376c        0x4 /opt/setup/gcc-arm-none-eabi-5_4-2016q2/arm-none-eabi/lib/armv7-m/libc.a(lib_a-impure.o)
                                  0x2 (size before relaxing)
 .rodata._global_impure_ptr
                0x00003770        0x4 /opt/setup/gcc-arm-none-eabi-5_4-2016q2/arm-none-eabi/lib/armv7-m/libc.a(lib_a-impure.o)
                0x00003770                _global_impure_ptr
 *(.eh_frame*)
 .eh_frame      0x00003774        0x0 /opt/setup/gcc-arm-none-eabi-5_4-2016q2/bin/../lib/gcc/arm-none-eabi/5.4.1/armv7-m/crtbegin.o
 .eh_frame      0x00003774        0x4 /opt/setup/gcc-arm-none-eabi-5_4-2016q2/bin/../lib/gcc/arm-none-eabi/5.4.1/armv7-m/crtend.o

.glue_7         0x00003778        0x0
 .glue_7        0x00003778        0x0 linker stubs

.glue_7t        0x00003778        0x0
 .glue_7t       0x00003778        0x0 linker stubs

.vfp11_veneer   0x00003778        0x0
 .vfp11_veneer  0x00003778        0x0 linker stubs

.v4_bx          0x00003778        0x0
 .v4_bx         0x00003778        0x0 linker stubs

.iplt           0x00003778        0x0
 .iplt          0x00003778        0x0 /opt/setup/gcc-arm-none-eabi-5_4-2016q2/bin/../lib/gcc/arm-none-eabi/5.4.1/armv7-m/crtbegin.o

.rel.dyn        0x00003778        0x0
 .rel.iplt      0x00003778        0x0 /opt/setup/gcc-arm-none-eabi-5_4-2016q2/bin/../lib/gcc/arm-none-eabi/5.4.1/armv7-m/crtbegin.o

.ARM.extab
 *(.ARM.extab* .gnu.linkonce.armextab.*)
                0x00003778                __exidx_start = .

.ARM.exidx
 *(.ARM.exidx* .gnu.linkonce.armexidx.*)
                0x00003778                __exidx_end = .
                0x00003778                __etext = .
                0x00003778                __sidata = __etext

.data           0x100000c8      0x434 load address 0x00003778
                0x100000c8                __data_start__ = .
 *(vtable)
 *(.data*)
 .data.impure_data
                0x100000c8      0x428 /opt/setup/gcc-arm-none-eabi-5_4-2016q2/arm-none-eabi/lib/armv7-m/libc.a(lib_a-impure.o)
                0x100004f0                . = ALIGN (0x4)
                0x100004f0                PROVIDE (__preinit_array_start, .)
 *(.preinit_array)
                0x100004f0                PROVIDE (__preinit_array_end, .)
                0x100004f0                . = ALIGN (0x4)
                0x100004f0                PROVIDE (__init_array_start, .)
 *(SORT(.init_array.*))
 .init_array.00000
                0x100004f0        0x4 /opt/setup/gcc-arm-none-eabi-5_4-2016q2/arm-none-eabi/lib/armv7-m/libc.a(lib_a-__call_atexit.o)
 *(.init_array)
 .init_array    0x100004f4        0x4 /opt/setup/gcc-arm-none-eabi-5_4-2016q2/bin/../lib/gcc/arm-none-eabi/5.4.1/armv7-m/crtbegin.o
                0x100004f8                PROVIDE (__init_array_end, .)
                0x100004f8                . = ALIGN (0x4)
                0x100004f8                PROVIDE (__fini_array_start, .)
 *(SORT(.fini_array.*))
 *(.fini_array)
 .fini_array    0x100004f8        0x4 /opt/setup/gcc-arm-none-eabi-5_4-2016q2/bin/../lib/gcc/arm-none-eabi/5.4.1/armv7-m/crtbegin.o
                0x100004fc                PROVIDE (__fini_array_end, .)
                0x100004fc                . = ALIGN (0x4)
                0x100004fc                __data_end__ = .

.jcr            0x100004fc        0x0 load address 0x00003bac
 .jcr           0x100004fc        0x0 /opt/setup/gcc-arm-none-eabi-5_4-2016q2/bin/../lib/gcc/arm-none-eabi/5.4.1/armv7-m/crtbegin.o

.igot.plt       0x100004fc        0x0 load address 0x00003bac
 .igot.plt      0x100004fc        0x0 /opt/setup/gcc-arm-none-eabi-5_4-2016q2/bin/../lib/gcc/arm-none-eabi/5.4.1/armv7-m/crtbegin.o

.stackarea      0x100004fc      0x800 load address 0x00003bac
 .stackarea     0x100004fc      0x800 startup_LPC17xx.o
                0x100004fc                pulStack

.bss            0x10000cfc       0xec load address 0x000043ac
                0x10000cfc                __bss_start__ = .
 *(.bss*)
 .bss           0x10000cfc       0x1c /opt/setup/gcc-arm-none-eabi-5_4-2016q2/bin/../lib/gcc/arm-none-eabi/5.4.1/armv7-m/crtbegin.o
 .bss.Setup     0x10000d18        0x8 usbcontrol.o
 .bss.pbData    0x10000d20        0x4 usbcontrol.o
 .bss.iResidue  0x10000d24        0x4 usbcontrol.o
 .bss.iLen      0x10000d28        0x4 usbcontrol.o
 .bss.apfnReqHandlers
                0x10000d2c       0x10 usbcontrol.o
 .bss.apbDataStore
                0x10000d3c       0x10 usbcontrol.o
 .bss.abBulkBuf
                0x10000d4c       0x40 USB_device.o
 .bss._pfnDevIntHandler
                0x10000d8c        0x4 usbhw_lpc.o
 .bss._apfnEPIntHandlers
                0x10000d90       0x40 usbhw_lpc.o
 .bss._pfnFrameHandler
                0x10000dd0        0x4 usbhw_lpc.o
 .bss.abStdReqData
                0x10000dd4        0x8 usbinit.o
 .bss.bConfiguration
                0x10000ddc        0x1 usbstdreq.o
 *fill*         0x10000ddd        0x3 
 .bss.pfnHandleCustomReq
                0x10000de0        0x4 usbstdreq.o
 .bss.pabDescrip
                0x10000de4        0x4 usbstdreq.o
 *(COMMON)
                0x10000de8                __bss_end__ = .

.heap           0x10000de8        0x0
                0x10000de8                __end__ = .
                0x10000de8                end = __end__
 *(.heap*)
                0x10000de8                __HeapLimit = .

.stack_dummy    0x10000de8        0x0
 *(.stack)
                0x10008000                __StackTop = (ORIGIN (RAM) + LENGTH (RAM))
                0x10008000                __StackLimit = (__StackTop - SIZEOF (.stack_dummy))
                0x10008000                PROVIDE (__stack, __StackTop)
                0x00000001                ASSERT ((__StackLimit >= __HeapLimit), region RAM overflowed with stack)
OUTPUT(basic.elf elf32-littlearm)

.ARM.attributes
                0x00000000       0x29
 .ARM.attributes
                0x00000000       0x1d /opt/setup/gcc-arm-none-eabi-5_4-2016q2/bin/../lib/gcc/arm-none-eabi/5.4.1/armv7-m/crti.o
 .ARM.attributes
                0x0000001d       0x2d /opt/setup/gcc-arm-none-eabi-5_4-2016q2/bin/../lib/gcc/arm-none-eabi/5.4.1/armv7-m/crtbegin.o
 .ARM.attributes
                0x0000004a       0x33 startup_LPC17xx.o
 .ARM.attributes
                0x0000007d       0x33 system_LPC17xx.o
 .ARM.attributes
                0x000000b0       0x33 rtc.o
 .ARM.attributes
                0x000000e3       0x33 lcd.o
 .ARM.attributes
                0x00000116       0x33 usbcontrol.o
 .ARM.attributes
                0x00000149       0x33 USB_device.o
 .ARM.attributes
                0x0000017c       0x33 usbhw_lpc.o
 .ARM.attributes
                0x000001af       0x33 usbinit.o
 .ARM.attributes
                0x000001e2       0x33 usbstdreq.o
 .ARM.attributes
                0x00000215       0x2d /opt/setup/gcc-arm-none-eabi-5_4-2016q2/arm-none-eabi/lib/armv7-m/libc.a(lib_a-impure.o)
 .ARM.attributes
                0x00000242       0x2d /opt/setup/gcc-arm-none-eabi-5_4-2016q2/arm-none-eabi/lib/armv7-m/libc.a(lib_a-strcpy.o)
 .ARM.attributes
                0x0000026f       0x2d /opt/setup/gcc-arm-none-eabi-5_4-2016q2/arm-none-eabi/lib/armv7-m/libc.a(lib_a-__call_atexit.o)
 .ARM.attributes
                0x0000029c       0x2d /opt/setup/gcc-arm-none-eabi-5_4-2016q2/arm-none-eabi/lib/armv7-m/libc.a(lib_a-atexit.o)
 .ARM.attributes
                0x000002c9       0x2d /opt/setup/gcc-arm-none-eabi-5_4-2016q2/arm-none-eabi/lib/armv7-m/libc.a(lib_a-fini.o)
 .ARM.attributes
                0x000002f6       0x2d /opt/setup/gcc-arm-none-eabi-5_4-2016q2/arm-none-eabi/lib/armv7-m/libc.a(lib_a-__atexit.o)
 .ARM.attributes
                0x00000323       0x2d /opt/setup/gcc-arm-none-eabi-5_4-2016q2/bin/../lib/gcc/arm-none-eabi/5.4.1/armv7-m/crtend.o
 .ARM.attributes
                0x00000350       0x1d /opt/setup/gcc-arm-none-eabi-5_4-2016q2/bin/../lib/gcc/arm-none-eabi/5.4.1/armv7-m/crtn.o

.comment        0x00000000       0x6e
 .comment       0x00000000       0x6e startup_LPC17xx.o
                                 0x6f (size before relaxing)
 .comment       0x0000006e       0x6f system_LPC17xx.o
 .comment       0x0000006e       0x6f rtc.o
 .comment       0x0000006e       0x6f lcd.o
 .comment       0x0000006e       0x6f usbcontrol.o
 .comment       0x0000006e       0x6f USB_device.o
 .comment       0x0000006e       0x6f usbhw_lpc.o
 .comment       0x0000006e       0x6f usbinit.o
 .comment       0x0000006e       0x6f usbstdreq.o

.debug_frame    0x00000000       0xf8
 .debug_frame   0x00000000       0x20 /opt/setup/gcc-arm-none-eabi-5_4-2016q2/arm-none-eabi/lib/armv7-m/libc.a(lib_a-strcpy.o)
 .debug_frame   0x00000020       0x50 /opt/setup/gcc-arm-none-eabi-5_4-2016q2/arm-none-eabi/lib/armv7-m/libc.a(lib_a-__call_atexit.o)
 .debug_frame   0x00000070       0x20 /opt/setup/gcc-arm-none-eabi-5_4-2016q2/arm-none-eabi/lib/armv7-m/libc.a(lib_a-atexit.o)
 .debug_frame   0x00000090       0x34 /opt/setup/gcc-arm-none-eabi-5_4-2016q2/arm-none-eabi/lib/armv7-m/libc.a(lib_a-fini.o)
 .debug_frame   0x000000c4       0x34 /opt/setup/gcc-arm-none-eabi-5_4-2016q2/arm-none-eabi/lib/armv7-m/libc.a(lib_a-__atexit.o)
